:100000000C9434000C943E000C943E000C943E0082
:100010000C943E000C943E000C943E000C943E0068
:100020000C943E000C943E000C943E000C943E0058
:100030000C943E000C943E000C943E000C943E0048
:100040000C943E000C943E000C943E000C943E0038
:100050000C943E000C943E000C943E000C943E0028
:100060000C943E000C943E0011241FBECFEFD8E04C
:10007000DEBFCDBF0E9440000C94B1020C94000082
:10008000CF93DF93CDB7DEB70E944700FFCFCF936A
:10009000DF9300D000D000D0CDB7DEB71A8219822E
:1000A0001B821C821D821E820E94BC006FEF8FEF9C
:1000B0000E9472029A83898389819A810E94F10049
:1000C00080E20E94D6006FEF7FEF8FEF9FEF0E94DC
:1000D0007702DC01CB018B839C83AD83BE838B8154
:1000E0009C81AD81BE81BC01CD010E94910180E265
:1000F0000E94D60063E171E08CE291E00E947E02F2
:100100009A83898389819A810E94F1008AE00E9402
:10011000D60069E084E60E9482029A8389838981FD
:100120009A810E94F10080E20E94D60066E270E0AF
:1001300085E396E00E948A02DC01CB018B839C83DD
:10014000AD83BE838B819C81AD81BE81CD01AA2709
:10015000BB270E94F10080E20E94D6008B819C8127
:100160000E94F100000026960FB6F894DEBF0FBE85
:10017000CDBFDF91CF910895CF93DF93CDB7DEB799
:1001800085EC90E0FC01108284EC90E027E6FC0115
:10019000208381EC90E0FC01208181EC90E02860DC
:1001A000FC0120830000DF91CF910895CF93DF936E
:1001B0001F92CDB7DEB78983000080EC90E0FC0190
:1001C0008081882F90E080729927892BB1F386EC8B
:1001D00090E02981FC01208300000F90DF91CF91F6
:1001E0000895EF92FF920F931F93CF93DF93CDB7B4
:1001F000DEB72B970FB6F894DEBF0FBECDBF9B873F
:100200008A870DB71EB78DB79EB77C0186E08C83B9
:100210002C81822F90E001979E838D83822F90E026
:100220002DB73EB7281B390B0FB6F8943EBF0FBE53
:100230002DBF8DB79EB7019698878F8380E18A8303
:1002400082E089838F81988520E3FC0120838F8160
:10025000988528E7FC0121838A8188508A838A81D6
:10026000282F30E08A859B8502C0969587952A9530
:10027000E2F78987898582958F70882F90E00E94A8
:1002800037029C018981882F90E0422F2F81388589
:10029000820F931FFC0140838985882F90E08F7027
:1002A00099270E9437029C018981882F90E001964E
:1002B000422F2F813885820F931FFC014083898153
:1002C0008E5F89838A81882339F61B820EC08B81D9
:1002D000882F90E02F813885820F931FFC01808149
:1002E0000E94D6008B818F5F8B839B818C819817B6
:1002F00070F30FB6F894FEBE0FBEEDBE00000FB651
:10030000F8941EBF0FBE0DBF2B960FB6F894DEBF3C
:100310000FBECDBFDF91CF911F910F91FF90EF9056
:100320000895EF92FF920F931F93CF93DF93CDB772
:10033000DEB72D970FB6F894DEBF0FBECDBF6A872C
:100340007B878C879D870DB71EB78DB79EB77C01C5
:100350008AE08C832C81822F90E001979E838D838D
:10036000822F90E02DB73EB7281B390B0FB6F894BB
:100370003EBF0FBE2DBF8DB79EB7019698878F8366
:1003800080E28A8382E089838F81988520E3FC0163
:1003900020838F81988528E7FC0121838A818850FA
:1003A0008A838A81282F30E08A859B85AC85BD852C
:1003B00004C0B695A795979587952A95D2F7898712
:1003C000898582958F70882F90E00E9437029C016A
:1003D0008981882F90E0422F2F813885820F931FCB
:1003E000FC0140838985882F90E08F7099270E94B7
:1003F00037029C018981882F90E00196422F2F813E
:100400003885820F931FFC01408389818E5F898329
:100410008A81882319F61B820EC08B81882F90E079
:100420002F813885820F931FFC0180810E94D600A6
:100430008B818F5F8B839B818C81981770F30FB6B4
:10044000F894FEBE0FBEEDBE00000FB6F8941EBFBE
:100450000FBE0DBF2D960FB6F894DEBF0FBECDBFF9
:10046000DF91CF911F910F91FF90EF900895CF935F
:10047000DF931F92CDB7DEB789838981882F90E003
:10048000092E000CAA0BBB0B80319105A105B1050B
:1004900020F5825B9D4FFC010C94AB025E025E0274
:1004A0005E025E025E025E025E025E025E025E024C
:1004B000610263026502670269026B0289818063DF
:1004C0000DC081E40BC082E409C083E407C084E46A
:1004D00005C085E403C086E401C080E00F90DF9191
:1004E000CF91089590E08894860F991F089588947D
:1004F000680F791F80E0881F90E008958894861B1C
:10050000970B08950F921F92869F802D912D1F901B
:100510000F9008950F931F932F933F934F935F93E3
:1005200000271127282F392F41E0552788942617B7
:10053000370730F0261B370B8894040F151FF6CFB2
:10054000622F732F802F912F5F914F913F912F91A9
:100550001F910F910895EE0FFF1F0590F491E02D6C
:060560000994F894FFCF9E
:00000001FF
