:100000000C9434000C9449000C9449000C94490061
:100010000C9449000C9449000C9449000C9449003C
:100020000C9449000C9449000C9449000C9449002C
:100030000C9449000C9449000C9449000C9449001C
:100040000C9449000C9449000C9449000C9449000C
:100050000C9449000C9449000C9449000C944900FC
:100060000C9449000C94490011241FBECFEFD8E036
:10007000DEBFCDBF11E0A0E0B1E0E2E9F1E002C0F7
:1000800005900D92AE30B107D9F70E944B000C9449
:10009000C7000C940000CF93DF93CDB7DEB70E946A
:1000A0005200FFCFCF93DF93CDB7DEB70E9492000F
:1000B0000E945E000000DF91CF910895CF93DF93FF
:1000C000CDB7DEB72F970FB6F894DEBF0FBECDBF0A
:1000D0008DE0E0E0F1E0DE01139601900D928A954B
:1000E000E1F78CE08A8319820FC08981882F90E024
:1000F0009E012D5F3F4F820F931FFC0180810E9464
:10010000AC0089818F5F898399818A81981768F310
:1001100000002F960FB6F894DEBF0FBECDBFDF9163
:10012000CF910895CF93DF93CDB7DEB785EC90E004
:10013000FC01108284EC90E027E6FC01208381EC36
:1001400090E0FC01208181EC90E02860FC0120839C
:100150000000DF91CF910895CF93DF931F92CDB729
:10016000DEB78983000080EC90E0FC018081882F5D
:1001700090E080729927892BB1F386EC90E0298179
:10018000FC01208300000F90DF91CF910895F89437
:02019000FFCF9F
:0E01920048656C6C6F20576F726C6421000022
:00000001FF
